:100000000C9463000C948B000C948B000C944105B1
:100010000C9441050C9441050C948B000C948B00BE
:100020000C948B000C948B000C948B000C9480042B
:100030000C948B000C948B000C948B000C948B0014
:100040000C941A040C948B000C94F8020C94D202B9
:100050000C948B000C948B000C948B000C948B00F4
:100060000C948B000C948B000000000024002700EF
:100070002A0000000008000201000003040700003D
:1000800000000000000000000000250028002B00F8
:1000900000000000230026002900040404040404D6
:1000A0000404020202020202030303030303010227
:1000B00004081020408001020408102001020408F6
:1000C0001020CA0AC00A11241FBECFEFD8E0DEBF3D
:1000D000CDBF11E0A0E0B1E0E4E4FDE102C0059095
:1000E0000D92A436B107D9F722E0A4E6B1E001C031
:1000F0001D92A43FB207E1F710E0C2E6D0E004C0D1
:100100002197FE010E947A0CC136D107C9F70E94DF
:10011000C5060C94950E0C940000FC01538D448D83
:10012000252F30E0842F90E0821B930B541710F0A2
:10013000CF96089501970895FC01918D828D9817AF
:1001400061F0828DDF01A80FB11D5D968C91928DBB
:100150009F5F9F73928F90E008958FEF9FEF0895B8
:10016000FC01918D828D981731F0828DE80FF11D81
:10017000858D90E008958FEF9FEF0895FC01918D9C
:10018000228D892F90E0805C9F4F821B91098F7395
:10019000992708958AED91E00E94BE0021E0892B05
:1001A00009F420E0822F0895FC01848DDF01A80F5F
:1001B000B11DA35ABF4F2C91848D90E001968F738F
:1001C0009927848FA689B7892C93A089B1898C91AE
:1001D00080648C93938D848D981306C00288F38974
:1001E000E02D80818F7D80830895EF92FF920F93A1
:1001F0001F93CF93DF93EC0181E0888F9B8D8C8DD3
:10020000981305C0E889F989808185FD24C0F62E00
:100210000B8D10E00F5F1F4F0F731127E02E8C8D99
:10022000E8120CC00FB607FCFACFE889F989808183
:1002300085FFF5CFCE010E94D400F1CF8B8DFE015A
:10024000E80FF11DE35AFF4FF0820B8FEA89FB891B
:100250008081806207C0EE89FF896083E889F9891F
:1002600080818064808381E090E0DF91CF911F9155
:100270000F91FF90EF900895CF93DF93EC01888D5D
:100280008823C9F0EA89FB89808185FD05C0A8899A
:10029000B9898C9186FD0FC00FB607FCF5CF808120
:1002A00085FFF2CFA889B9898C9185FFEDCFCE016A
:1002B0000E94D400E7CFDF91CF91089580E090E0D5
:1002C000892B29F00E94CA0081110C940000089526
:1002D0003FB7F8948091CF019091D001A091D101C6
:1002E000B091D20126B5A89B05C02F3F19F0019609
:1002F000A11DB11D3FBFBA2FA92F982F8827820FAC
:10030000911DA11DB11DBC01CD0142E0660F771FFB
:10031000881F991F4A95D1F70895CF92DF92EF92E7
:10032000FF92CF93DF93EC01603282E078070CF00C
:100330003DC077FD06C0653B71052CF064EB70E0B5
:1003400002C060E070E0898128E830E06901C81AE5
:10035000D10887FDD394CC0CDD1CCC0CDD1C0D2CFE
:10036000000CEE08FF088A8128E532E0281B3109DD
:1003700087FD3395220F331F220F331FC901330F1F
:10038000AA0BBB0B9C01AD012C193D094E095F095D
:10039000DB010E94F80B24EB30E040E050E00E94CB
:1003A000CE0BC20ED31EE41EF51EB60188818C3022
:1003B00080F5998148E850E0491B510997FD539514
:1003C000440F551F440F551F6417750784F09A8119
:1003D00028E532E0291B310997FD3395220F331FA1
:1003E000220F331FAB01261737070CF4A901425027
:1003F0005109440F551F2FB7F89490E0FC01EE0F00
:10040000FF1F8E0F9F1FFC01EA55FE4F5283418351
:100410002FBFDF91CF91FF90EF90DF90CF900895A5
:100420002091D5013091D6012817390771F49091A8
:10043000D3018091D401981741F0E091D301F0E00D
:10044000EC59FE4F808190E008958FEF9FEF089563
:1004500008951F93CF93DF93DC015C962D913C911F
:100460005D972115310539F481E090E013969C9356
:100470008E9312973DC05196ED91FC9152975096F4
:100480009C915097892F80951FB75E964C915E97EF
:1004900041FB772770F941FD6095F89440817723FF
:1004A00011F0492B01C048234083E9012197F1F75E
:1004B00048E0508160FF02C0592B01C0582350838F
:1004C000E9012197F1F76695415099F7772321F0DB
:1004D00090818923808303C08081982B90831FBFE4
:1004E0005C968D919C915D970197F1F721E030E04A
:1004F000C901DF91CF911F9108952091D5013091CD
:10050000D6012817390771F48091D4012091D301C5
:1005100090E0805C9F4F821B910960E470E00E9434
:10052000520C089580E090E008952091D50130911B
:10053000D60128173907B9F49091D3018091D401DD
:10054000981789F0E091D301F0E0EC59FE4F8081DB
:100550002091D30130E02F5F3F4F2F73332720933B
:10056000D30190E008958FEF9FEF0895E091D501BA
:10057000F091D601E817F90769F4A389B4899C9131
:100580008589809589238C931092D6011092D5018C
:1005900081E0089580E00895089580E090E0089556
:1005A0000E94770E1F920F920FB60F9211242F9375
:1005B0003F934F935F936F937F938F939F93AF93EB
:1005C000BF93EF93FF938AED91E00E94D400FF91D7
:1005D000EF91BF91AF919F918F917F916F915F91BB
:1005E0004F913F912F910F900FBE0F901F90189534
:1005F0001F920F920FB60F9211242F938F939F93F8
:10060000EF93FF93E091EA01F091EB018081E0919B
:10061000F001F091F10182FD12C090818091F3010F
:100620008F5F8F732091F401821751F0E091F301F5
:10063000F0E0E652FE4F958F8093F30101C0808178
:10064000FF91EF919F918F912F910F900FBE0F907F
:100650001F90189590E0FC01EE58FF4F3491FC017B
:10066000E255FF4F2491FC01E656FF4FE491EE2343
:1006700009F43BC0332339F1333091F038F4313091
:10068000A9F0323001F584B58F7D12C0373091F07A
:100690003830A1F03430B9F4809180008F7D03C0F0
:1006A000809180008F77809380000DC084B58F7714
:1006B00084BD09C08091B0008F7703C08091B000E5
:1006C0008F7D8093B000F0E0EE0FFF1FEA57FF4FE1
:1006D000A591B4918FB7F894EC91611103C0209566
:1006E0002E2301C02E2B2C938FBF0895CF93DF9321
:1006F00090E0FC01E255FF4F2491FC01E656FF4FCC
:100700008491882361F190E0880F991FFC01E859DA
:10071000FF4FC591D491FC01EA57FF4FA591B491C9
:10072000611109C09FB7F89488812095822388833E
:10073000EC912E230BC0623061F49FB7F89438819E
:10074000822F809583238883EC912E2B2C939FBF3F
:1007500006C08FB7F894E8812E2B28838FBFDF91D6
:10076000CF9108951F93CF93DF93EC01162F8881CB
:100770008C3008F04EC061E0812F0E9476038881A2
:10078000E82FF0E09F01220F331FE20FF31FEA551D
:10079000FE4F1F739081907C192B108319821A824F
:1007A0006CE00E94460C9CE0899FB001112440E05F
:1007B00050E09A01260F371FF901EE0FFF1F2E0F91
:1007C0003F1FF901EA55FE4F908196FD16C04F5F1D
:1007D0005F4F4C30510569F781110FC010928000B6
:1007E00082E0809381001092850010928400B19A7B
:1007F00080916F00826080936F00E881F0E0CF010C
:10080000880F991FE80FF91FEA55FE4F8081806419
:1008100080838881DF91CF911F9108952FB7F8943D
:100820006091CB017091CC018091CD019091CE016E
:100830002FBF08951F920F920FB60F9211242F937E
:100840003F938F939F93AF93BF938091CB019091F0
:10085000CC01A091CD01B091CE013091CA0123E02D
:10086000230F2D3720F40196A11DB11D05C026E8E8
:10087000230F0296A11DB11D2093CA018093CB01C5
:100880009093CC01A093CD01B093CE018091CF0184
:100890009091D001A091D101B091D2010196A11DFA
:1008A000B11D8093CF019093D001A093D101B0935B
:1008B000D201BF91AF919F918F913F912F910F9056
:1008C0000FBE0F901F901895FC019091A5019C30D0
:1008D000A0F481E0890F8093A5019083892F90E097
:1008E000FC01EE0FFF1F8E0F9F1FFC01EA55FE4F0C
:1008F00088EB9BE09283818308958FEF8083089536
:100900001F920F920FB60F9211242F933F934F9384
:100910005F936F937F938F939F93AF93BF93EF9367
:10092000FF938091A40187FF05C01092850010926B
:1009300084001BC02091A401022E000C330B809177
:10094000A50190E02817390784F48091A401082EAE
:10095000000C990BFC01EE0FFF1F8E0F9F1FFC0177
:10096000EA55FE4F808186FD15C08091A4018F5FFE
:100970008093A4012091A401022E000C330B8091DE
:10098000A50190E028173907C4F48091A4018C30A8
:1009900064F113C08091A401082E000C990BFC0196
:1009A000EE0FFF1F8E0F9F1FFC01EA55FE4F808147
:1009B00060E08F730E942A03D8CF809184009091C9
:1009C0008500049680349C4918F480E49CE905C0B5
:1009D0008091840090918500049690938900809383
:1009E00088008FEF8093A4013BC020918400309158
:1009F00085008091A401082E000C990BFC01EE0FDC
:100A0000FF1F8E0F9F1FFC01EA55FE4F81819281CF
:100A1000820F931F90938900809388008091A40196
:100A2000082E000C990BFC01EE0FFF1F8E0F9F1F6D
:100A3000FC01EA55FE4F808186FF12C08091A4011F
:100A4000082E000C990BFC01EE0FFF1F8E0F9F1F4D
:100A5000FC01EA55FE4F808161E08F730E942A03FA
:100A6000FF91EF91BF91AF919F918F917F916F9186
:100A70005F914F913F912F910F900FBE0F901F905C
:100A800018951F920F920FB60F9211242F933F9338
:100A90004F935F936F937F938F939F93AF93BF9386
:100AA000EF93FF93E091D501F091D601309709F4CF
:100AB00051C0968DA685B785858591FF04C09C9110
:100AC000892329F447C09C91892309F043C0A38955
:100AD000B4899C918589809589238C93868997898F
:100AE0000197F1F7608D718DA685B785558538E042
:100AF00020E0CB010197F1F7822F90E09595879543
:100B0000282F4C91452309F02068315091F7868DAC
:100B100081FD20958091D40190E001968F739927F3
:100B20003091D301381749F0A091D401B0E0AC590D
:100B3000BE4F2C938093D40103C0868D8160868F35
:100B4000828D938D0197F1F7A389B4899C91858952
:100B5000892B8C93FF91EF91BF91AF919F918F91D2
:100B60007F916F915F914F913F912F910F900FBEA9
:100B70000F901F9018950895CF92DF92EF92FF92F9
:100B80000F931F93CF93DF936C017A018B01C0E029
:100B9000D0E0CE15DF0589F0D8016D918D01D60129
:100BA000ED91FC910190F081E02DC6010995892B12
:100BB00011F47E0102C02196ECCFC701DF91CF91E5
:100BC0001F910F91FF90EF90DF90CF9008950F93BA
:100BD0001F93CF93DF938C01EB0161E08CE00E94C7
:100BE0002A030230110540F0C801880F991F880FB1
:100BF000991F05970197F1F760E08CE00E942A03A6
:100C0000C230D10538F0CC0FDD1FCC0FDD1F25978A
:100C10002197F1F7DF91CF911F910F9108950F93D5
:100C20001F930E940E046093E2017093E30180938E
:100C3000E4019093E501E091DA01F091DB01028497
:100C4000F385E02D8AED91E0099597FF1FC00E9482
:100C50000E040091E2011091E3012091E401309132
:100C6000E501DC01CB01801B910BA20BB30B0091C2
:100C7000DE011091DF012091E0013091E101801748
:100C80009107A207B307B8F28FEF9FEF1F910F9163
:100C900008950F931F93CF93DF93EC01888199817F
:100CA000009729F02A813B812617370788F48B01AA
:100CB0006F5F7F4F0E94AD0D009761F0998388832D
:100CC0001B830A832C813D81232B11F4FC011082AC
:100CD00081E001C080E0DF91CF911F910F910895D5
:100CE000EF92FF920F931F93CF93DF93EC01198242
:100CF00018821B821A821D821C826115710549F1BE
:100D00008B01FB0101900020E9F731977F01E61A82
:100D1000F70AB7010E9449062881398181110DC067
:100D20002115310519F0C9010E94150D198218828B
:100D30001D821C821B821A820CC0FD82EC82B801CB
:100D4000C901DF91CF911F910F91FF90EF900C940B
:100D50008E0EDF91CF911F910F91FF90EF9008952C
:100D60006115710579F0FB0101900020E9F73197D9
:100D7000AF01461B570BDC01ED91FC910280F38122
:100D8000E02D099480E090E00895CF93DF93CDB7F4
:100D9000DEB72E970FB6F894DEBF0FBECDBF7894A6
:100DA00084B5826084BD84B5816084BD85B5826070
:100DB00085BD85B5816085BD80916E008160809321
:100DC0006E0010928100809181008260809381008A
:100DD000809181008160809381008091800081609A
:100DE000809380008091B10084608093B1008091F5
:100DF000B00081608093B00080917A00846080931D
:100E00007A0080917A00826080937A0080917A00E3
:100E1000816080937A0080917A00806880937A0064
:100E20001092C1001092BB021092BC021092BD023F
:100E30001092BE021092790210927A0210927B02F6
:100E400010927C020E940E046B017C014B015C013C
:100E500028EB820E2BE0921EA11CB11C0E940E04F6
:100E60006C157D058E059F0528F086169706A80649
:100E7000B906A0F78AED91E09093BA028093B90287
:100E8000E091EA01F091EB0182E08083E091E601DC
:100E9000F091E7011082E091E801F091E90180E131
:100EA00080831092F201E091EE01F091EF0186E073
:100EB0008083E091EC01F091ED018081806180837D
:100EC000E091EC01F091ED01808188608083E091F8
:100ED000EC01F091ED01808180688083E091EC016C
:100EE000F091ED0180818F7D80830E940E046093DC
:100EF000790270937A0280937B0290937C0264E380
:100F000071E08091B9029091BA020E94B0060E94ED
:100F10000E046B017C014B015C018AE0880E911C80
:100F2000A11CB11C0E940E046C157D058E059F0549
:100F300028F086169706A806B906A0F781E08093E8
:100F40008D0261E08CE00E94760360E08CE00E94FC
:100F50002A036BE070E08EEC92E00E94B2036AE03C
:100F600070E08BEC92E00E94B20369E070E088ECE4
:100F700092E00E94B20366E070E085EC92E00E948D
:100F8000B20365E070E082EC92E00E94B20363E09D
:100F900070E08FEB92E00E94B20360E070E08EECB4
:100FA00092E00E948D0168E270E08BEC92E00E947A
:100FB0008D0164EB70E088EC92E00E948D016AEA9A
:100FC00070E082EC92E00E948D0160E070E085ECC0
:100FD00092E00E948D0169E470E08FEB92E00E9444
:100FE0008D011092D8011092D70188E290E0909381
:100FF00009018093080184EB90E0909307018093AE
:1010000006018AEA90E09093030180930201109216
:1010100005011092040189E490E09093010180930E
:1010200000010E940E046B017C010E940E04DC0191
:10103000CB018C199D09AE09BF09803D9740A105E0
:10104000B10538F462EC71E080E590E00E94E705BC
:10105000ECCF0E940E04DC01CB018C199D09AE0976
:10106000BF0980379741A105B10538F46EEA71E0F8
:101070008BE490E00E94E705ECCF61E08CE00E94F9
:101080002A031092EC021092EB021092EA021092E4
:10109000E9021092E8021092E7028FE190E090934B
:1010A000EE028093ED029091DD02963108F057C078
:1010B00021E030E03093E8022093E7022DE130E0B8
:1010C0003093EA022093E9022DE030E03093EC0205
:1010D0002093EB0220916800983050F031E09E3070
:1010E00008F430E081E001C0880F3A95EAF701C0CA
:1010F00084E0822B80936800983038F09E3040F076
:10110000963148F020E030E008C02DE630E005C020
:101110002BE630E002C02CE630E03093E50220936D
:10112000E402983030F481E001C0880F9A95EAF724
:101130000EC0292F30E09E3018F42850310902C02B
:101140002E50310981E001C0880F2A95EAF780937B
:10115000E6028091ED029091EE020197F1F7809105
:10116000EB029091EC02892B21F18091D5019091B5
:10117000D60122E0813D9207E1F0009711F00E9434
:10118000B6028091EF028E7F8093EF021092D4011D
:101190001092D30181ED92E09093D6018093D50116
:1011A000E091E402F091E50290818091E602892BC2
:1011B000808366E471E081ED92E00E94B00663E412
:1011C00071E081ED92E00E94B00665E471E0CE012D
:1011D00007960E94700665E471E0CE0101960E94B8
:1011E00070060E940F0697FD1BC08D871E860D811D
:1011F0001E810F5F1F4FB801CE0101960E94490664
:10120000882379F329813A818D819E81BE01635FB4
:101210007F4F820F931F0E948E0E1E830D83E1CF9E
:101220008F8198850097A9F069817A816115710590
:1012300071F049855A852D813E814217530738F058
:101240000E948E0E8D819E819C878B8712C00E948A
:10125000150D89819A8198878F838B819C819A87CC
:1012600089878D819E819C878B871A8219821C8237
:101270001B821E821D8289819A810E94150D8B8599
:101280009C85892B09F4A7CFEF81F885808188237D
:1012900009F4A1CF63E571E0CE0101960E947006CA
:1012A0008B859C85EF80F8840D811E81E114F1040B
:1012B000B9F0009709F1080F191FB801CE01019686
:1012C0000E944906882361F029813A818D819E819F
:1012D000B701820F931F0E948E0E1E830D830CC0D8
:1012E00089819A81009711F00E94150D1A82198246
:1012F0001E821D821C821B824D815E8169817A81E2
:101300008AED91E00E94BC0563E471E08AED91E012
:101310000E94B00689819A810E94150D8B859C855B
:10132000892B39F48F8198850E94150D0E945E01EA
:101330004CCF6FE571E08F8198850E94850E892BD7
:1013400089F76091D7017091D8016A357105E1F094
:101350008EEC92E00E948D018091D7019091D8018E
:101360008A3591052CF401969093D8018093D7018A
:101370008091D7019091D8018B3591052CF0019780
:101380009093D8018093D701009108011091090131
:101390000A351105D1F0B8018BEC92E00E948D0165
:1013A0000A35110534F40F5F1F4F109309010093A4
:1013B000080180910801909109018B3591052CF06D
:1013C0000197909309018093080100910601109103
:1013D00007010A351105D1F0B80188EC92E00E94AE
:1013E0008D010A35110534F40F5F1F4F109307016B
:1013F0000093060180910601909107018B359105BC
:101400002CF001979093070180930601009104014D
:10141000109105010A351105D1F0B80185EC92E073
:101420000E948D010A35110534F40F5F1F4F109390
:1014300005010093040180910401909105018B3511
:1014400091052CF001979093050180930401009180
:101450000201109103010A351105D1F0B80182ECA7
:1014600092E00E948D010A35110534F40F5F1F4F81
:1014700010930301009302018091020190910301F6
:101480008B3591052CF00197909303018093020115
:10149000009100011091010109341105D1F0B8014A
:1014A0008FEB92E00E948D010934110534F40F5F37
:1014B0001F4F109301010093000180910001909152
:1014C00001018A3491052CF00197909301018093DA
:1014D00000010E9468014B015C018EE1C82ED12CF5
:1014E000E12CF12C0E946801DC01CB0188199909DB
:1014F000AA09BB09883E9340A105B10558F081E0D7
:10150000C81AD108E108F10828EE820E23E0921EE5
:10151000A11CB11CC114D104E104F10419F780919C
:10152000D7019091D8018A35910509F00ACF8091B1
:101530000801909109018A35910509F002CF809147
:101540000601909107018A35910509F0FACE809144
:101550000401909105018A35910509F0F2CE809140
:101560000201909103018A35910509F0EACE80913C
:101570000001909101018934910509F0E2CED2CEAB
:1015800086E291E09093D2028093D10281ED92E0C5
:101590000C94B6021092DD011092DC0188EE93E00B
:1015A000A0E0B0E08093DE019093DF01A093E00122
:1015B000B093E10124E131E03093DB012093DA01C3
:1015C00025EC30E03093E7012093E60124EC30E095
:1015D0003093E9012093E80120EC30E03093EB01F7
:1015E0002093EA0121EC30E03093ED012093EC01EF
:1015F00022EC30E03093EF012093EE0126EC30E056
:101600003093F1012093F0011092F3011092F40154
:101610001092F5011092F60110927D0210927E0256
:1016200010927F0210928002109281021092820228
:101630001092830210928402109285021092860208
:1016400010928702109288021092890210928A02E8
:1016500010928B0210928C021092D4021092D3023C
:101660008093D5029093D602A093D702B093D8026C
:1016700086E291E09093D2028093D1021092E80228
:101680001092E7021092EA021092E9021092EC0224
:101690001092EB021092EE021092ED026091EF02B6
:1016A0006E7F6D7F6093EF026695617081E06827C1
:1016B0008BE00E942A0361E08BE00E947603E9EB55
:1016C000F0E0E491E093E102E5EAF0E0E491F0E09B
:1016D000EE0FFF1FEA57FF4F859194919093E3021D
:1016E0008093E20260E08AE00E9476038091EF023C
:1016F00081FD04C061E08AE00E942A038AE08093B1
:10170000DD02E8EBF0E0E491E093DE02E4EAF0E0F1
:10171000E491F0E0EE0FFF1FE057FF4F85919491A9
:101720009093E0028093DF028EEC92E00E946404CA
:101730008BEC92E00E94640488EC92E00E946404C6
:1017400085EC92E00E94640482EC92E00E946404C2
:101750008FEB92E00C946404A1E21A2EAA1BBB1B2F
:10176000FD010DC0AA1FBB1FEE1FFF1FA217B3076D
:10177000E407F50720F0A21BB30BE40BF50B661F83
:10178000771F881F991F1A9469F760957095809547
:1017900090959B01AC01BD01CF010895052E97FBEB
:1017A0001EF400940E94E50B57FD07D00E94AC0B7D
:1017B00007FC03D04EF40C94E50B50954095309502
:1017C00021953F4F4F4F5F4F0895909580957095AD
:1017D00061957F4F8F4F9F4F08950E94370CA59FB3
:1017E000900DB49F900DA49F800D911D112408951C
:1017F000B7FF0C94ED0B0E94ED0B821B930B089529
:101800002F923F924F925F926F927F928F929F9210
:10181000AF92BF92CF92DF92EF92FF920F931F93FE
:10182000CF93DF93CDB7DEB7CA1BDB0B0FB6F894AF
:10183000DEBF0FBECDBF09942A88398848885F84EF
:101840006E847D848C849B84AA84B984C884DF8060
:10185000EE80FD800C811B81AA81B981CE0FD11D44
:101860000FB6F894DEBF0FBECDBFED010895A29F65
:10187000B001B39FC001A39F700D811D1124911D64
:10188000B29F700D811D1124911D0895991B79E05F
:1018900004C0991F961708F0961B881F7A95C9F700
:1018A0008095089597FB072E16F4009407D077FDD6
:1018B00009D00E94660C07FC05D03EF490958195F6
:1018C0009F4F0895709561957F4F0895AA1BBB1B8C
:1018D00051E107C0AA1FBB1FA617B70710F0A61B30
:1018E000B70B881F991F5A95A9F780959095BC0151
:1018F000CD010895EE0FFF1F0590F491E02D09949E
:10190000CF93DF938230910510F482E090E0E09174
:10191000F202F091F30220E030E0C0E0D0E0309736
:1019200011F14081518148175907C0F048175907F4
:1019300061F482819381209719F09B838A832BC065
:101940009093F3028093F20226C02115310519F01D
:101950004217530718F49A01BE01DF01EF0102801C
:10196000F381E02DDCCF2115310509F1281B390B5E
:101970002430310590F412968D919C911397611546
:10198000710521F0FB019383828304C09093F302DD
:101990008093F202FD01329644C0FD01E20FF31F75
:1019A00081939193225031092D933C933AC0209119
:1019B000F0023091F102232B41F420910C0130917F
:1019C0000D013093F1022093F00220910A01309131
:1019D0000B012115310541F42DB73EB740910E01A1
:1019E00050910F01241B350BE091F002F091F102B0
:1019F000E217F307A0F42E1B3F0B2817390778F0E6
:101A0000AC014E5F5F4F2417350748F04E0F5F1F44
:101A10005093F1024093F0028193919302C0E0E071
:101A2000F0E0CF01DF91CF9108950F931F93CF93F3
:101A3000DF93009709F48CC0FC0132971382128265
:101A40000091F2021091F3020115110581F4208139
:101A50003181820F931F2091F0023091F1022817FB
:101A6000390779F5F093F102E093F00271C0D801E3
:101A700040E050E0AE17BF0750F412962D913C9114
:101A80001397AD012115310509F1D901F3CF9D015E
:101A9000DA013383228360817181860F971F821759
:101AA000930769F4EC0128813981260F371F2E5FD7
:101AB0003F4F318320838A819B8193838283452B8F
:101AC00029F4F093F302E093F20242C01396FC93E0
:101AD000EE931297ED01499159919E01240F351F04
:101AE000E217F30771F480819181840F951F0296AC
:101AF00011969C938E938281938113969C938E93DF
:101B00001297E0E0F0E0D80112968D919C91139726
:101B1000009719F0F8018C01F6CF8D919C919801F6
:101B20002E5F3F4F820F931F2091F0023091F10200
:101B30002817390769F4309729F41092F3021092AC
:101B4000F20202C0138212821093F1020093F0029B
:101B5000DF91CF911F910F910895A0E0B0E0E3EBEA
:101B6000FDE00C94040CEC01009721F4CB010E94E1
:101B7000800CB8C0FC01E60FF71F9C012250310910
:101B8000E217F30708F4ACC0D9010D911C9111972D
:101B900006171707B0F00530110508F49FC0C801FB
:101BA00004978617970708F499C002501109061B7D
:101BB000170B019311936D937C93CF010E94150D28
:101BC0008DC05B01A01AB10A4C01800E911EA0913C
:101BD000F202B091F30240E050E0E12CF12C1097BA
:101BE00009F44AC0A815B905D1F56D907C901197FC
:101BF000630182E0C80ED11CCA14DB0480F1A3018A
:101C00004A195B096A0182E0C80ED11C1296BC9089
:101C100012971396AC91B5E0CB16D10440F0B28286
:101C2000A38351834083D9016D937C930AC00E5FD7
:101C30001F4FC301800F911FF90191838083EB2D0A
:101C4000FA2FE114F10431F0D7011396FC93EE93CF
:101C5000129744C0F093F302E093F2023FC08D91DB
:101C60009C9111974817590708F4AC017D01129611
:101C70000D90BC91A02DB3CF8091F0029091F10214
:101C800088159905E1F446175707C8F480910A01B1
:101C900090910B01009741F48DB79EB740910E01D2
:101CA00050910F01841B950BE817F907C8F4F093C6
:101CB000F102E093F002F901718360830FC0CB0160
:101CC0000E94800C7C01009759F0A801BE010E947F
:101CD0007C0ECE010E94150DC70104C0CE0102C0CA
:101CE00080E090E0CDB7DEB7EEE00C94200C81E010
:101CF00090E0F8940C94950EFB01DC0102C0019079
:101D00000D9241505040D8F70895FB01DC018D91B0
:101D1000019080190110D9F3990B0895FB01DC01A2
:101D200001900D920020E1F7089510E0C2E6D0E0A6
:101D300004C0FE010E947A0C2196C336D107C9F770
:041D4000F894FFCF45
:101D44000A005A00B400B4002D000000F402800020
:101D540000000000F500BC058D003C01BE009C00A5
:101D6400B000000000002902BC05CD0228027D025B
:101D740095021002564D4450565F317C315F564DEA
:101D84004450560D0A0048656C6C6F2C20776F72B6
:101D94006C6400676F7420696E7075743A20007407
:041DA40065737400EF
:107E0000112484B714BE81FFF0D085E080938100F7
:107E100082E08093C00088E18093C10086E0809377
:107E2000C20080E18093C4008EE0C9D0259A86E02C
:107E300020E33CEF91E0309385002093840096BBD3
:107E4000B09BFECF1D9AA8958150A9F7CC24DD24C4
:107E500088248394B5E0AB2EA1E19A2EF3E0BF2EE7
:107E6000A2D0813461F49FD0082FAFD0023811F036
:107E7000013811F484E001C083E08DD089C08234E0
:107E800011F484E103C0853419F485E0A6D080C0E4
:107E9000853579F488D0E82EFF2485D0082F10E0AE
:107EA000102F00270E291F29000F111F8ED06801E7
:107EB0006FC0863521F484E090D080E0DECF843638
:107EC00009F040C070D06FD0082F6DD080E0C81688
:107ED00080E7D80618F4F601B7BEE895C0E0D1E017
:107EE00062D089930C17E1F7F0E0CF16F0E7DF06D8
:107EF00018F0F601B7BEE89568D007B600FCFDCFD4
:107F0000A601A0E0B1E02C9130E011968C91119780
:107F100090E0982F8827822B932B1296FA010C0160
:107F200087BEE89511244E5F5F4FF1E0A038BF0790
:107F300051F7F601A7BEE89507B600FCFDCF97BE46
:107F4000E89526C08437B1F42ED02DD0F82E2BD052
:107F50003CD0F601EF2C8F010F5F1F4F84911BD097
:107F6000EA94F801C1F70894C11CD11CFA94CF0C13
:107F7000D11C0EC0853739F428D08EE10CD085E9AC
:107F80000AD08FE07ACF813511F488E018D01DD067
:107F900080E101D065CF982F8091C00085FFFCCF94
:107FA0009093C60008958091C00087FFFCCF809118
:107FB000C00084FD01C0A8958091C6000895E0E648
:107FC000F0E098E1908380830895EDDF803219F02E
:107FD00088E0F5DFFFCF84E1DECF1F93182FE3DFCA
:107FE0001150E9F7F2DF1F91089580E0E8DFEE27F6
:047FF000FF270994CA
:027FFE00040479
:0400000300007E007B
:00000001FF